:04000000BDEF07F059
:08000800046ED8CF05F0E0CF33
:1000100006F00001E9CF0CF0EACF07F0E1CF08F0DD
:10002000E2CF09F0D9CF0AF0DACF0BF0F3CF12F01C
:10003000F4CF13F0FACF14F000C00EF001C00FF0AF
:1000400002C010F003C011F0F2A62AEF00F0F2B0E7
:100050007FEF00F00EC000F00FC001F010C002F002
:1000600011C003F00CC0E9FF07C0EAFF078E08C00B
:10007000E1FF09C0E2FF0AC0D9FF0BC0DAFF12C0DE
:10008000F3FF13C0F4FF14C0FAFF045006C0E0FFF2
:1000900005C0D8FF1000F2CF0DF0F29EF76AB00F46
:1000A000F66E000EF7220900F5500DBEF28E12001A
:1000B000280C0106F2CF0DF0F29EF76ACE0FF66E15
:1000C000000EF7220900F5500DBEF28E1200C0F9A5
:1000D000A4B0999282F88090EA6A640EE96EEF50BB
:1000E0000DE0060E016E006A002EFED7012EFBD732
:1000F0007B0E006E002EFED7EF2EF3D71200140EEB
:10010000646FEADF938E81BE08D04B2A4B500608FD
:1001100001E14B6A938E81AEFDD74B50030817E186
:10012000938A81BA08D04C2A4C50180801E14C6AD5
:10013000938A81AAFDD7938C81BC09D04C064C5080
:10014000FF0802E1170E4C6E938C81ACFDD74B502B
:10015000040817E1938A81BA08D04D2A4D503C0813
:1001600001E14C6A938A81AAFDD7938C81BC09D0A6
:100170004D064C50FF0802E13B0E4C6E938C81AC57
:10018000FDD7F2902AEF00F04D6F64653A203300FE
:1001900054484F49204749414E2042414F2054483E
:1001A0005543000054696D653A202575203A202595
:1001B00075203A257520202020005365743A2025AB
:1001C00064203A202564203A202564005365743A5F
:1001D000202564203A202564203A202564005254CA
:1001E00043204572722100004D6F64653A202564FA
:1001F0002020200054696D653A202575203A20257D
:1002000075203A25752020202000202020204C65D4
:10021000204B79205475616E00002020486F616E7C
:1002200067204475632054726F6E67004D6F64657C
:100230003A202564202020004E6869657420446FB0
:100240003A2025730000446F20416D3A2025730049
:10025000202020202020202020202020202020209E
:10026000202020202020202020202020202020208E
:1002700020202020202020202000080E016E050EC6
:10028000006E002EFED78A929392060E006E002E0C
:10029000FED763378A90D8B09380D8A0939093828A
:1002A00081A2FED7012EEBD7050E006E002EFED7E1
:1002B0008A92939200009380060E006E002EFED765
:1002C000060E006E002EFED7938281A2FED7016A31
:1002D000060E006E002EFED781B001808A929392A6
:1002E0008A90939012006151000A03E0010A26E00F
:1002F0004BD06039006EF00E001600501B10626F7C
:10030000636FBBDF00006039006EF00E0016005016
:1003100004091B10626F636FB0DF020E006E002EC7
:10032000FED700D000006039006EF00E00160050BD
:10033000FB0B1B10626F636FA0DF26D06039006E6D
:10034000F00E0016005001091B10626F636F95DFFD
:1003500000006039006EF00E00160050010904091B
:100360001B10626F636F89DF020E006E002EFED7D6
:1003700000D000006039006EF00E00160050010938
:100380001B10626F636F79DF12009380050E006EA1
:10039000002EFED79382060E006E002EFED78A90A6
:1003A0009390050E006E002EFED78A92939217C08E
:1003B00063F063DF5D385F6E0F0E5F165FC060F045
:1003C0005EC061F090DF5D500F0B5F6E606F5EC0CE
:1003D00061F089DF93900000938281A2FED7050E21
:1003E000006E002EFED700D000009380050E006E38
:1003F000002EFED71200010E5D6E5E6AC6DF166A21
:10040000F2BE168EF29E020E646F66DE16BEF28E8D
:10041000010E1A6E12004FC017F051C018F050C0F4
:1004200019F0F29CF29EF2BEFDD7166AF2BE168E4D
:10043000F29E320E646F50DE16BEF28E9380050E71
:10044000006E002EFED79382060E006E002EFED7A1
:100450008A909390050E006E002EFED78A9293929A
:1004600017C063F00ADF606B616B3DDF166AF2BE96
:10047000168EF29E0F0E646F2FDE16BEF28E010EE8
:10048000526E525003080FE3030E606F616B2BDF57
:10049000166AF2BE168EF29E050E646F1DDE16BE43
:1004A000F28E522AEED7020E606F616B1CDF166A65
:1004B000F2BE168EF29E050E646F0EDE16BEF28E32
:1004C00093900000938281A2FED7050E006E002E4D
:1004D000FED700D000009380050E006E002EFED7E0
:1004E000526A5250030817E3036A5250F2CF53F096
:1004F000F29ED1DD53BEF28E536E5D6E5E6A45DFB5
:10050000166AF2BE168EF29E050E646FE5DD16BE0B
:10051000F28E522AE6D76FDFC00EF212F9EF07F023
:10052000959A959A8C9A166AF2BE168EF29E190EBC
:10053000646FD2DD16BEF28E959A8C8A520E006ED2
:10054000002EFED700D00000958A61EF03F0CF6A3D
:10055000CE6A958A83BA0BD0CE50CFCF03F04F6EC0
:10056000CFCF50F0505203E14F509508F2E2CE50F9
:10057000CFCF03F04F6ECFCF50F0505203E14F502A
:10058000950804E2000E016E22D021D0CF6ACE6A17
:10059000958A83AA0BD0CE50CFCF03F04F6ECFCF2A
:1005A00050F0505203E14F506308F2E2CE50CFCFEB
:1005B00003F04F6ECFCF50F0505203E14F5063081D
:1005C00004E2000E016E03D002D0010E016E62EF54
:1005D00003F04FC0E9FF50C0EAFFEF6A516A515083
:1005E00007084AE3CF6ACE6A958A83BA0FD0CE5005
:1005F000CFCF03F0526ECFCF53F0535203E152509E
:10060000630803E2010E016E39D0EED7CF6ACE6ADD
:10061000958A83AA0FD0CE50CFCF03F0526ECFCFA2
:1006200053F0535203E15250640803E2010E016E8D
:1006300025D0EED7CE50CFCF03F0526ECFCF53F0B0
:10064000535203E15250320815E250C003F04FC03C
:10065000E9FF50C0EAFF070ED8805154526E010ED8
:10066000006E5250016E04E0D8900036012EFCD787
:100670000050EF12512AB3D7000E016E1200016A2A
:10068000026A006A036A545002E1535018E0100EE7
:10069000556ED89051365236003603365450035CAE
:1006A00002E15350005C07E35350005ED8A00306FC
:1006B0005450035ED88001360236552EEAD7120018
:1006C0002FD745D70152D8B4CFD0506A440E4F6EC1
:1006D00080DF506A450E4F6E7CDF506A420E4F6ECF
:1006E00078DF506A430E4F6E74DF506A460E4F6ECD
:1006F00070DF4550442442244324465CD8A4A4D04F
:100700004A6A44C049F049C050F04F6A4F50451002
:10071000496E50C04AF0486A42C047F047C050F0A6
:100720004F6A4F504310476E50C048F04A5002087D
:1007300008E2FF0A03E14950E70803E2310E3A6E8E
:1007400002D0200E3A6E48507F0809E2FF0A03E10A
:100750004750000804E22D0E326E489E02D0200E53
:10076000326E48C052F047C051F0546A640E536E66
:1007700086DF02C050F001C04FF002C052F001C04D
:1007800051F0546A0A0E536E7ADF300E0024336E35
:1007900048C052F047C051F0546A0A0E536E6FDFE2
:1007A00002C050F001C04FF002C052F001C051F041
:1007B000546A0A0E536E63DF300E0024346E48C054
:1007C00052F047C051F0546A0A0E536E58DF300E93
:1007D0000024366E4AC052F049C051F0546A640E8B
:1007E000536E4DDF02C050F001C04FF002C052F016
:1007F00001C051F0546A0A0E536E41DF300E0024DE
:100800003B6E4AC052F049C051F0546A0A0E536E12
:1008100036DF02C050F001C04FF002C052F001C0FC
:1008200051F0546A0A0E536E2ADF300E00243C6EDB
:100830004AC052F049C051F0546A0A0E536E1FDF8D
:10084000300E00243E6E0FD0450E366E36C034F0AA
:1008500034C033F033C032F03E6E3EC03CF03CC09A
:100860003BF03BC03AF00FD0450E366E36C034F048
:1008700034C033F033C032F03E6E3EC03CF03CC07A
:100880003BF03BC03AF0FDEF07F0080E506E00C0A1
:1008900051F09380060E006E002EFED7938281A247
:1008A000FED781B0D88081A0D8900136050E006EA9
:1008B000002EFED793928A92502EEBD79380060E8D
:1008C000006E002EFED78A905150D8A4939000005D
:1008D000938281A2FED7050E006E002EFED78A926B
:1008E0009392060E006E002EFED78A90939012000F
:1008F0004F38006E0F0E001600500A0DF3CF50F067
:100900004F500F0B5024016E12009380050E006EA5
:10091000002EFED79382060E006E002EFED78A9020
:100920009390050E006E002EFED78A929392D00E01
:10093000636FA3DC636BA1DC9380050E006E002E59
:10094000FED79382060E006E002EFED781A2FED740
:100950008A909390050E006E002EFED78A92939295
:10096000D10E636F8ADC010E006E8FDF01507F0BAA
:100970001D6E010E006E89DF01C01EF0010E006EBB
:1009800084DF01C01FF0010E006E7FDF01C020F088
:10099000010E006E7ADF01C021F0010E006E75DFDE
:1009A00001C022F0006A71DF01C023F093900000C3
:1009B000938281A2FED7050E006E002EFED700D0D6
:1009C00000009380050E006E002EFED71DC04FF074
:1009D0008FDF01C01DF01EC04FF08ADF01C01EF086
:1009E0001FC04FF085DF01C01FF021C04FF080DF36
:1009F00001C021F022C04FF07BDF01C022F023C0F4
:100A00004FF076DF01C023F01D0E016E000E026E66
:100A100012005750185C03E218C058F002D057C0BB
:100A200058F05850010A07E0030A07E0010A08E0FD
:100A3000070A09E00BD05A6A0AD0400E5A6E07D056
:100A4000140E5A6E04D0540E5A6E01D05A6A565083
:100A5000195C03E219C059F002D056C059F0010EDA
:100A6000595C5A245B6E5B5080095C6E5D6E5E6AF9
:100A70008CDC120055500C0A05E0060A05E0020A5B
:100A80000FE013D0B8DC16D01A2A1A50185C02E214
:100A9000010E1A6E010E566E1AC057F0BADF0AD058
:100AA000100E5D6E5E6A71DC05D055C05DF0010E02
:100AB0005E6E6BDC12000900F5520CE0F6CF4FF0D1
:100AC000F7CF50F0F5CF55F0D5DF4FC0F6FF50C04F
:100AD000F7FFF1D712005650016A555C03E255C08A
:100AE00000F00CD0006A080E576E5536003656508E
:100AF000005CD8B0006E0136572EF7D71200526A4C
:100B0000525007081CE3070ED8805254016E51C0A2
:100B100000F0015204E0D8900032012EFCD70050C2
:100B2000010B02E18D9401D08D84969496908D8076
:100B300000D000D0000096908D90522AE1D7BAEFF5
:100B400005F0959C8C9C4F6A4F50050815E3036A8D
:100B50004F502C0FE96E000E0320EA6E036AEF502F
:100B6000F2CF50F0F29E5AEC00F050BEF28E506E72
:100B7000516EC5D74F2AE8D7959C8C8C19EF06F09B
:100B8000020E2A24E96E000E2B20EA6EEFCF26F02B
:100B9000010E2A24E96E000E2B20EA6EEFCF25F01D
:100BA0002AC0E9FF2BC0EAFFEFCF24F0040E2A246D
:100BB000E96E000E2B20EA6EEFCF27F0050E2A24F7
:100BC000E96E000E2B20EA6EEFCF28F0060E2A24E5
:100BD000E96E000E2B20EA6EEFCF29F029C055F008
:100BE0000A0E566E78DF00C02CF029C055F00A0EB0
:100BF000566E71DF01C02DF028C055F00A0E566EFA
:100C00006ADF00C02EF028C055F00A0E566E63DF72
:100C100001C02FF027C055F00A0E566E5CDF00C0F1
:100C200030F027C055F00A0E566E55DF01C031F086
:100C300088D726EF08F00900F6CF50F0F7CF51F033
:100C4000F5CF55F017DF50C0F6FF51C0F7FF4F2E1C
:100C5000F2D71200200E50A8300E516E4FC000F097
:100C60004FAE08D0001E002A00C04FF02D0E516E6E
:100C7000508E508001504FC055F0640E566E2BDFE1
:100C800000C04FF0300E0124526E4FC055F00A0ED6
:100C9000566E21DF300E0024546E300E0124536E48
:100CA00051C000F0300E525C04E0508250BE5084BF
:100CB00012D051C052F0200E516E300E535C04E041
:100CC000508050BE508207D0D8A4508004E152C05A
:100CD00053F0200E526E50B405D050B206D050B032
:100CE00007D009D051C055F0C5DE52C055F0C2DE64
:100CF00053C055F0BFDE54C055F0BCDE12000150A9
:100D00004FC055F0640E566EE6DE00C04FF0015045
:100D1000300E07E150A20CD050B60AD050B8200EC9
:100D200003D0509650985080012601C055F0A2DEA5
:100D30004FC055F00A0E566ECEDE00C04FF0015087
:100D4000300E06E150B608D050A006D050B8200EA4
:100D5000012601C055F08EDE300E4F264FC055F0F3
:100D600089DE1200EF520FE0EACF50F0E9CF4FF0EA
:100D7000EFCF55F07FDE50C0EAFF4FC0E9FFE92A10
:100D8000D8B4EA2AEFD71200FBEC01F0010E566E40
:100D9000576E3FDE880EF66E010EF76E8CDE010E8A
:100DA000566E020E576E35DE900EF66E010EF76E21
:100DB00082DE010E566E030E576E2BDEA40EF66E0B
:100DC000010EF76E060E4F6E36DF26C04FF01B0E7B
:100DD000506E95DFAC0EF66E010EF76E030E4F6E81
:100DE0002ADF25C04FF01B0E506E89DF200E556E96
:100DF00041DE3A0E556E3EDE24C04FF01B0E506EA3
:100E00007EDFB50EF66E010EF76E040E4F6E13DF29
:100E10004B50030849E1010E566E040E576EF9DD82
:100E2000BA0EF66E010EF76E050E4F6E04DF4CC063
:100E30004FF0180E506E0EDFC10EF66E010EF76EFB
:100E4000030E4F6EF8DE4DC04FF0180E506E02DFED
:100E5000C60EF66E010EF76E030E4F6EECDE4EC040
:100E60004FF0180E506EF6DE166AF2BE168EF29E27
:100E7000640E646F6CEC00F016BEF28E050E566EBA
:100E8000040E576EC6DD200E556EF4DD200E556E35
:100E9000F1DD166AF2BE168EF29E640E646F6CEC83
:100EA00000F016BEF28E67D04B5004082DE10A0EFA
:100EB000566E040E576EADDD4DC04FF0180E506EDD
:100EC000C9DE200E556ED6DD166AF2BE168EF29E73
:100ED000640E646F6CEC00F016BEF28E0A0E566E55
:100EE000040E576E96DD200E556EC4DD200E556E35
:100EF000C1DD166AF2BE168EF29E640E646F6CEC53
:100F000000F016BEF28E37D04B50050834E1010ECA
:100F1000566E040E576E7DDDCC0EF66E010EF76E2A
:100F2000050E4F6E88DE4CC04FF0180E506E92DEEC
:100F3000D30EF66E010EF76E030E4F6E7CDE4DC0C3
:100F40004FF0180E506E86DED80EF66E010EF76E5C
:100F5000030E4F6E70DE4EC04FF0180E506E7ADEEC
:100F600026504C5C06E125504D5C03E194908B804B
:100F700002D094908B90CEEF08F0F86AD09E078E46
:100F8000010E1A6E080E1B6E4C6A4D6A4E6AC150F5
:100F9000C00B0F09C16E070EB46E1C6A200E326EB4
:100FA000300E336E346E2E0E356E300E366E200ED1
:100FB000376E430E386E396A200E3A6E300E3B6E35
:100FC0003C6E2E0E3D6E300E3E6E200E3F6E250E98
:100FD000406E416AA50ECD6EFF0E936EF286C00E76
:100FE000F212700E4F6E140E506E040E516E0BEF17
:100FF00002F0DF0E376E60EF03F087DC02C02BF0EB
:1010000001C02AF0020E2A24E96E000E2B20EA6E9F
:10101000EF50170810E3010E2A24E96E000E2B2072
:10102000EA6EEF503B0807E32AC0E9FF2BC0EAFF56
:10103000EF503B080AE2010E566E576EEADCDE0EF8
:10104000F66E010EF76E37DD01D09AD54B525BE19B
:10105000010E566E576EDDDCE80EF66E010EF76E71
:10106000060E4F6EE8DD4BC04FF0180E506EF2DDED
:10107000F00EF66E010EF76E030E4F6EDCDD010E04
:10108000566E020E576EC5DCF40EF66E010EF76E4C
:10109000060E4F6ED0DD26C04FF01B0E506E2FDEB9
:1010A000FC0EF66E010EF76E030E4F6EC4DD25C00A
:1010B0004FF01B0E506E23DE200E556EDBDC3A0E19
:1010C000556ED8DC24C04FF01B0E506E18DE050E96
:1010D000F66E020EF76E040E4F6EADDD010E566E0B
:1010E000030E576E96DC0A0EF66E020EF76EE3DC08
:1010F000010E566E040E576E8CDC1A0EF66E020E42
:10110000F76ED9DC4BD04B2C48D0010E566E576E83
:1011100080DC2C0EF66E020EF76E060E4F6E8BDD27
:101120004BC04FF0180E506E95DD340EF66E020E69
:10113000F76E030E4F6E7FDD010E566E020E576E78
:1011400068DC380EF66E020EF76E0A0E4F6E73DD17
:10115000EA6A320EE96E06DE010E566E030E576E17
:1011600058DC460EF66E020EF76E070E4F6E63DD0C
:10117000EA6A3A0EE96EF6DD010E566E040E576EFF
:1011800048DC500EF66E020EF76E95DC85EC04F02E
:1011900002C02BF001C02AF001D0F6D52CD70300F5
:020000040030CA
:0E0000003CCE3E1E0087A1000FC00FE00F4057
:00000001FF
;PIC18F4550
;CRC=451E  CREATED="16-Jun-25 01:01"
